{
  "_format": "hh-sol-artifact-1",
  "contractName": "NFTMarketplace",
  "sourceName": "contracts/NFTMarketplace.sol",
  "abi": [
    {
      "inputs": [],
      "stateMutability": "nonpayable",
      "type": "constructor"
    },
    {
      "anonymous": false,
      "inputs": [
        {
          "indexed": true,
          "internalType": "address",
          "name": "owner",
          "type": "address"
        },
        {
          "indexed": true,
          "internalType": "address",
          "name": "approved",
          "type": "address"
        },
        {
          "indexed": true,
          "internalType": "uint256",
          "name": "tokenId",
          "type": "uint256"
        }
      ],
      "name": "Approval",
      "type": "event"
    },
    {
      "anonymous": false,
      "inputs": [
        {
          "indexed": true,
          "internalType": "address",
          "name": "owner",
          "type": "address"
        },
        {
          "indexed": true,
          "internalType": "address",
          "name": "operator",
          "type": "address"
        },
        {
          "indexed": false,
          "internalType": "bool",
          "name": "approved",
          "type": "bool"
        }
      ],
      "name": "ApprovalForAll",
      "type": "event"
    },
    {
      "anonymous": false,
      "inputs": [
        {
          "indexed": true,
          "internalType": "uint256",
          "name": "ID",
          "type": "uint256"
        },
        {
          "indexed": false,
          "internalType": "address",
          "name": "seller",
          "type": "address"
        },
        {
          "indexed": false,
          "internalType": "address",
          "name": "owner",
          "type": "address"
        },
        {
          "indexed": false,
          "internalType": "uint256",
          "name": "price",
          "type": "uint256"
        },
        {
          "indexed": false,
          "internalType": "bool",
          "name": "sold",
          "type": "bool"
        }
      ],
      "name": "MarketItem_Created",
      "type": "event"
    },
    {
      "anonymous": false,
      "inputs": [
        {
          "indexed": true,
          "internalType": "address",
          "name": "from",
          "type": "address"
        },
        {
          "indexed": true,
          "internalType": "address",
          "name": "to",
          "type": "address"
        },
        {
          "indexed": true,
          "internalType": "uint256",
          "name": "tokenId",
          "type": "uint256"
        }
      ],
      "name": "Transfer",
      "type": "event"
    },
    {
      "inputs": [
        {
          "internalType": "address",
          "name": "to",
          "type": "address"
        },
        {
          "internalType": "uint256",
          "name": "tokenId",
          "type": "uint256"
        }
      ],
      "name": "approve",
      "outputs": [],
      "stateMutability": "nonpayable",
      "type": "function"
    },
    {
      "inputs": [
        {
          "internalType": "address",
          "name": "owner",
          "type": "address"
        }
      ],
      "name": "balanceOf",
      "outputs": [
        {
          "internalType": "uint256",
          "name": "",
          "type": "uint256"
        }
      ],
      "stateMutability": "view",
      "type": "function"
    },
    {
      "inputs": [
        {
          "internalType": "uint256",
          "name": "tokenID",
          "type": "uint256"
        }
      ],
      "name": "createMarketSell",
      "outputs": [],
      "stateMutability": "payable",
      "type": "function"
    },
    {
      "inputs": [
        {
          "internalType": "string",
          "name": "tokenURI",
          "type": "string"
        },
        {
          "internalType": "uint256",
          "name": "price",
          "type": "uint256"
        }
      ],
      "name": "createToken",
      "outputs": [
        {
          "internalType": "uint256",
          "name": "",
          "type": "uint256"
        }
      ],
      "stateMutability": "payable",
      "type": "function"
    },
    {
      "inputs": [],
      "name": "fetchMarketItems",
      "outputs": [
        {
          "components": [
            {
              "internalType": "uint256",
              "name": "tokenID",
              "type": "uint256"
            },
            {
              "internalType": "address payable",
              "name": "seller",
              "type": "address"
            },
            {
              "internalType": "address payable",
              "name": "owner",
              "type": "address"
            },
            {
              "internalType": "uint256",
              "name": "price",
              "type": "uint256"
            },
            {
              "internalType": "bool",
              "name": "sold",
              "type": "bool"
            }
          ],
          "internalType": "struct NFTMarketplace.MarketItem[]",
          "name": "",
          "type": "tuple[]"
        }
      ],
      "stateMutability": "view",
      "type": "function"
    },
    {
      "inputs": [],
      "name": "fetchMyNFTs",
      "outputs": [
        {
          "components": [
            {
              "internalType": "uint256",
              "name": "tokenID",
              "type": "uint256"
            },
            {
              "internalType": "address payable",
              "name": "seller",
              "type": "address"
            },
            {
              "internalType": "address payable",
              "name": "owner",
              "type": "address"
            },
            {
              "internalType": "uint256",
              "name": "price",
              "type": "uint256"
            },
            {
              "internalType": "bool",
              "name": "sold",
              "type": "bool"
            }
          ],
          "internalType": "struct NFTMarketplace.MarketItem[]",
          "name": "",
          "type": "tuple[]"
        }
      ],
      "stateMutability": "view",
      "type": "function"
    },
    {
      "inputs": [],
      "name": "fetchMyNFTsForSale",
      "outputs": [
        {
          "components": [
            {
              "internalType": "uint256",
              "name": "tokenID",
              "type": "uint256"
            },
            {
              "internalType": "address payable",
              "name": "seller",
              "type": "address"
            },
            {
              "internalType": "address payable",
              "name": "owner",
              "type": "address"
            },
            {
              "internalType": "uint256",
              "name": "price",
              "type": "uint256"
            },
            {
              "internalType": "bool",
              "name": "sold",
              "type": "bool"
            }
          ],
          "internalType": "struct NFTMarketplace.MarketItem[]",
          "name": "",
          "type": "tuple[]"
        }
      ],
      "stateMutability": "view",
      "type": "function"
    },
    {
      "inputs": [
        {
          "internalType": "uint256",
          "name": "tokenId",
          "type": "uint256"
        }
      ],
      "name": "getApproved",
      "outputs": [
        {
          "internalType": "address",
          "name": "",
          "type": "address"
        }
      ],
      "stateMutability": "view",
      "type": "function"
    },
    {
      "inputs": [],
      "name": "getListingPrice",
      "outputs": [
        {
          "internalType": "uint256",
          "name": "",
          "type": "uint256"
        }
      ],
      "stateMutability": "view",
      "type": "function"
    },
    {
      "inputs": [
        {
          "internalType": "address",
          "name": "owner",
          "type": "address"
        },
        {
          "internalType": "address",
          "name": "operator",
          "type": "address"
        }
      ],
      "name": "isApprovedForAll",
      "outputs": [
        {
          "internalType": "bool",
          "name": "",
          "type": "bool"
        }
      ],
      "stateMutability": "view",
      "type": "function"
    },
    {
      "inputs": [],
      "name": "listingPrice",
      "outputs": [
        {
          "internalType": "uint256",
          "name": "",
          "type": "uint256"
        }
      ],
      "stateMutability": "view",
      "type": "function"
    },
    {
      "inputs": [],
      "name": "name",
      "outputs": [
        {
          "internalType": "string",
          "name": "",
          "type": "string"
        }
      ],
      "stateMutability": "view",
      "type": "function"
    },
    {
      "inputs": [
        {
          "internalType": "uint256",
          "name": "tokenId",
          "type": "uint256"
        }
      ],
      "name": "ownerOf",
      "outputs": [
        {
          "internalType": "address",
          "name": "",
          "type": "address"
        }
      ],
      "stateMutability": "view",
      "type": "function"
    },
    {
      "inputs": [
        {
          "internalType": "uint256",
          "name": "tokenID",
          "type": "uint256"
        },
        {
          "internalType": "uint256",
          "name": "price",
          "type": "uint256"
        }
      ],
      "name": "resellToken",
      "outputs": [],
      "stateMutability": "payable",
      "type": "function"
    },
    {
      "inputs": [
        {
          "internalType": "address",
          "name": "from",
          "type": "address"
        },
        {
          "internalType": "address",
          "name": "to",
          "type": "address"
        },
        {
          "internalType": "uint256",
          "name": "tokenId",
          "type": "uint256"
        }
      ],
      "name": "safeTransferFrom",
      "outputs": [],
      "stateMutability": "nonpayable",
      "type": "function"
    },
    {
      "inputs": [
        {
          "internalType": "address",
          "name": "from",
          "type": "address"
        },
        {
          "internalType": "address",
          "name": "to",
          "type": "address"
        },
        {
          "internalType": "uint256",
          "name": "tokenId",
          "type": "uint256"
        },
        {
          "internalType": "bytes",
          "name": "_data",
          "type": "bytes"
        }
      ],
      "name": "safeTransferFrom",
      "outputs": [],
      "stateMutability": "nonpayable",
      "type": "function"
    },
    {
      "inputs": [
        {
          "internalType": "address",
          "name": "operator",
          "type": "address"
        },
        {
          "internalType": "bool",
          "name": "approved",
          "type": "bool"
        }
      ],
      "name": "setApprovalForAll",
      "outputs": [],
      "stateMutability": "nonpayable",
      "type": "function"
    },
    {
      "inputs": [
        {
          "internalType": "bytes4",
          "name": "interfaceId",
          "type": "bytes4"
        }
      ],
      "name": "supportsInterface",
      "outputs": [
        {
          "internalType": "bool",
          "name": "",
          "type": "bool"
        }
      ],
      "stateMutability": "view",
      "type": "function"
    },
    {
      "inputs": [],
      "name": "symbol",
      "outputs": [
        {
          "internalType": "string",
          "name": "",
          "type": "string"
        }
      ],
      "stateMutability": "view",
      "type": "function"
    },
    {
      "inputs": [
        {
          "internalType": "uint256",
          "name": "tokenId",
          "type": "uint256"
        }
      ],
      "name": "tokenURI",
      "outputs": [
        {
          "internalType": "string",
          "name": "",
          "type": "string"
        }
      ],
      "stateMutability": "view",
      "type": "function"
    },
    {
      "inputs": [
        {
          "internalType": "address",
          "name": "from",
          "type": "address"
        },
        {
          "internalType": "address",
          "name": "to",
          "type": "address"
        },
        {
          "internalType": "uint256",
          "name": "tokenId",
          "type": "uint256"
        }
      ],
      "name": "transferFrom",
      "outputs": [],
      "stateMutability": "nonpayable",
      "type": "function"
    },
    {
      "inputs": [
        {
          "internalType": "uint256",
          "name": "_listingPrice",
          "type": "uint256"
        }
      ],
      "name": "updateListingPrice",
      "outputs": [],
      "stateMutability": "payable",
      "type": "function"
    }
  ],
  "bytecode": "0x60806040526658d15e176280006009553480156200001c57600080fd5b506040518060400160405280601581526020017f43727970746f6b65745f4d61726b6574706c61636500000000000000000000008152506040518060400160405280600381526020017f434b5400000000000000000000000000000000000000000000000000000000008152508160009080519060200190620000a192919062000104565b508060019080519060200190620000ba92919062000104565b50505033600a60006101000a81548173ffffffffffffffffffffffffffffffffffffffff021916908373ffffffffffffffffffffffffffffffffffffffff16021790555062000219565b8280546200011290620001b4565b90600052602060002090601f01602090048101928262000136576000855562000182565b82601f106200015157805160ff191683800117855562000182565b8280016001018555821562000182579182015b828111156200018157825182559160200191906001019062000164565b5b50905062000191919062000195565b5090565b5b80821115620001b057600081600090555060010162000196565b5090565b60006002820490506001821680620001cd57607f821691505b60208210811415620001e457620001e3620001ea565b5b50919050565b7f4e487b7100000000000000000000000000000000000000000000000000000000600052602260045260246000fd5b61439380620002296000396000f3fe6080604052600436106101355760003560e01c806370a08231116100ab578063b88d4fde1161006f578063b88d4fde14610411578063c78f19f91461043a578063c87b56dd14610465578063e219fc75146104a2578063e985e9c5146104be578063fcfa2607146104fb57610135565b806370a082311461033457806372b3b6201461037157806395d89b41146103a1578063a22cb465146103cc578063ae677aa3146103f557610135565b806312e85585116100fd57806312e8558514610233578063202e37401461025e57806323b872dd1461028957806342842e0e146102b257806362819b59146102db5780636352211e146102f757610135565b806301ffc9a71461013a57806306fdde0314610177578063081812fc146101a2578063095ea7b3146101df5780630f08efe014610208575b600080fd5b34801561014657600080fd5b50610161600480360381019061015c9190612ef9565b610526565b60405161016e91906135d3565b60405180910390f35b34801561018357600080fd5b5061018c610608565b60405161019991906135ee565b60405180910390f35b3480156101ae57600080fd5b506101c960048036038101906101c49190612f9f565b61069a565b6040516101d69190613505565b60405180910390f35b3480156101eb57600080fd5b5061020660048036038101906102019190612ebd565b61071f565b005b34801561021457600080fd5b5061021d610837565b60405161022a91906135b1565b60405180910390f35b34801561023f57600080fd5b50610248610af2565b60405161025591906138d0565b60405180910390f35b34801561026a57600080fd5b50610273610afc565b60405161028091906135b1565b60405180910390f35b34801561029557600080fd5b506102b060048036038101906102ab9190612db7565b610e42565b005b3480156102be57600080fd5b506102d960048036038101906102d49190612db7565b610ea2565b005b6102f560048036038101906102f09190612f9f565b610ec2565b005b34801561030357600080fd5b5061031e60048036038101906103199190612f9f565b6110fa565b60405161032b9190613505565b60405180910390f35b34801561034057600080fd5b5061035b60048036038101906103569190612d52565b6111ac565b60405161036891906138d0565b60405180910390f35b61038b60048036038101906103869190612f4b565b611264565b60405161039891906138d0565b60405180910390f35b3480156103ad57600080fd5b506103b66112a3565b6040516103c391906135ee565b60405180910390f35b3480156103d857600080fd5b506103f360048036038101906103ee9190612e81565b611335565b005b61040f600480360381019061040a9190612f9f565b61134b565b005b34801561041d57600080fd5b5061043860048036038101906104339190612e06565b6113e5565b005b34801561044657600080fd5b5061044f611447565b60405161045c91906138d0565b60405180910390f35b34801561047157600080fd5b5061048c60048036038101906104879190612f9f565b61144d565b60405161049991906135ee565b60405180910390f35b6104bc60048036038101906104b79190612fc8565b61159f565b005b3480156104ca57600080fd5b506104e560048036038101906104e09190612d7b565b61179a565b6040516104f291906135d3565b60405180910390f35b34801561050757600080fd5b5061051061182e565b60405161051d91906135b1565b60405180910390f35b60007f80ac58cd000000000000000000000000000000000000000000000000000000007bffffffffffffffffffffffffffffffffffffffffffffffffffffffff1916827bffffffffffffffffffffffffffffffffffffffffffffffffffffffff191614806105f157507f5b5e139f000000000000000000000000000000000000000000000000000000007bffffffffffffffffffffffffffffffffffffffffffffffffffffffff1916827bffffffffffffffffffffffffffffffffffffffffffffffffffffffff1916145b80610601575061060082611b74565b5b9050919050565b60606000805461061790613b71565b80601f016020809104026020016040519081016040528092919081815260200182805461064390613b71565b80156106905780601f1061066557610100808354040283529160200191610690565b820191906000526020600020905b81548152906001019060200180831161067357829003601f168201915b5050505050905090565b60006106a582611bde565b6106e4576040517f08c379a00000000000000000000000000000000000000000000000000000000081526004016106db906137f0565b60405180910390fd5b6004600083815260200190815260200160002060009054906101000a900473ffffffffffffffffffffffffffffffffffffffff169050919050565b600061072a826110fa565b90508073ffffffffffffffffffffffffffffffffffffffff168373ffffffffffffffffffffffffffffffffffffffff16141561079b576040517f08c379a000000000000000000000000000000000000000000000000000000000815260040161079290613890565b60405180910390fd5b8073ffffffffffffffffffffffffffffffffffffffff166107ba611c4a565b73ffffffffffffffffffffffffffffffffffffffff1614806107e957506107e8816107e3611c4a565b61179a565b5b610828576040517f08c379a000000000000000000000000000000000000000000000000000000000815260040161081f90613730565b60405180910390fd5b6108328383611c52565b505050565b606060006108456007611d0b565b905060006108536008611d0b565b61085d6007611d0b565b6108679190613a75565b90506000808267ffffffffffffffff8111156108ac577f4e487b7100000000000000000000000000000000000000000000000000000000600052604160045260246000fd5b6040519080825280602002602001820160405280156108e557816020015b6108d2612b19565b8152602001906001900390816108ca5790505b50905060005b84811015610ae75760003073ffffffffffffffffffffffffffffffffffffffff16600b600060018561091d91906139ee565b815260200190815260200160002060020160009054906101000a900473ffffffffffffffffffffffffffffffffffffffff1673ffffffffffffffffffffffffffffffffffffffff161490508015610ad357600060018361097d91906139ee565b90506000600b60008381526020019081526020016000209050806040518060a0016040529081600082015481526020016001820160009054906101000a900473ffffffffffffffffffffffffffffffffffffffff1673ffffffffffffffffffffffffffffffffffffffff1673ffffffffffffffffffffffffffffffffffffffff1681526020016002820160009054906101000a900473ffffffffffffffffffffffffffffffffffffffff1673ffffffffffffffffffffffffffffffffffffffff1673ffffffffffffffffffffffffffffffffffffffff168152602001600382015481526020016004820160009054906101000a900460ff161515151581525050858781518110610ab6577f4e487b7100000000000000000000000000000000000000000000000000000000600052603260045260246000fd5b6020026020010181905250600186610ace91906139ee565b955050505b508080610adf90613bd4565b9150506108eb565b508094505050505090565b6000600954905090565b60606000610b0a6007611d0b565b905060008060005b83811015610bb95760003373ffffffffffffffffffffffffffffffffffffffff16600b6000600185610b4491906139ee565b815260200190815260200160002060020160009054906101000a900473ffffffffffffffffffffffffffffffffffffffff1673ffffffffffffffffffffffffffffffffffffffff161490508015610ba557600184610ba291906139ee565b93505b508080610bb190613bd4565b915050610b12565b5060008267ffffffffffffffff811115610bfc577f4e487b7100000000000000000000000000000000000000000000000000000000600052604160045260246000fd5b604051908082528060200260200182016040528015610c3557816020015b610c22612b19565b815260200190600190039081610c1a5790505b50905060005b84811015610e375760003373ffffffffffffffffffffffffffffffffffffffff16600b6000600185610c6d91906139ee565b815260200190815260200160002060020160009054906101000a900473ffffffffffffffffffffffffffffffffffffffff1673ffffffffffffffffffffffffffffffffffffffff161490508015610e23576000600183610ccd91906139ee565b90506000600b60008381526020019081526020016000209050806040518060a0016040529081600082015481526020016001820160009054906101000a900473ffffffffffffffffffffffffffffffffffffffff1673ffffffffffffffffffffffffffffffffffffffff1673ffffffffffffffffffffffffffffffffffffffff1681526020016002820160009054906101000a900473ffffffffffffffffffffffffffffffffffffffff1673ffffffffffffffffffffffffffffffffffffffff1673ffffffffffffffffffffffffffffffffffffffff168152602001600382015481526020016004820160009054906101000a900460ff161515151581525050858781518110610e06577f4e487b7100000000000000000000000000000000000000000000000000000000600052603260045260246000fd5b6020026020010181905250600186610e1e91906139ee565b955050505b508080610e2f90613bd4565b915050610c3b565b508094505050505090565b610e53610e4d611c4a565b82611d19565b610e92576040517f08c379a0000000000000000000000000000000000000000000000000000000008152600401610e89906138b0565b60405180910390fd5b610e9d838383611df7565b505050565b610ebd838383604051806020016040528060008152506113e5565b505050565b6000600b6000838152602001908152602001600020600301549050803414610f1f576040517f08c379a0000000000000000000000000000000000000000000000000000000008152600401610f16906136b0565b60405180910390fd5b33600b600084815260200190815260200160002060020160006101000a81548173ffffffffffffffffffffffffffffffffffffffff021916908373ffffffffffffffffffffffffffffffffffffffff1602179055506001600b600084815260200190815260200160002060040160006101000a81548160ff0219169083151502179055506000600b600084815260200190815260200160002060010160006101000a81548173ffffffffffffffffffffffffffffffffffffffff021916908373ffffffffffffffffffffffffffffffffffffffff160217905550611003600861205e565b61100e303384611df7565b600a60009054906101000a900473ffffffffffffffffffffffffffffffffffffffff1673ffffffffffffffffffffffffffffffffffffffff166108fc6009549081150290604051600060405180830381858888f19350505050158015611078573d6000803e3d6000fd5b50600b600083815260200190815260200160002060010160009054906101000a900473ffffffffffffffffffffffffffffffffffffffff1673ffffffffffffffffffffffffffffffffffffffff166108fc349081150290604051600060405180830381858888f193505050501580156110f5573d6000803e3d6000fd5b505050565b6000806002600084815260200190815260200160002060009054906101000a900473ffffffffffffffffffffffffffffffffffffffff169050600073ffffffffffffffffffffffffffffffffffffffff168173ffffffffffffffffffffffffffffffffffffffff1614156111a3576040517f08c379a000000000000000000000000000000000000000000000000000000000815260040161119a90613770565b60405180910390fd5b80915050919050565b60008073ffffffffffffffffffffffffffffffffffffffff168273ffffffffffffffffffffffffffffffffffffffff16141561121d576040517f08c379a000000000000000000000000000000000000000000000000000000000815260040161121490613750565b60405180910390fd5b600360008373ffffffffffffffffffffffffffffffffffffffff1673ffffffffffffffffffffffffffffffffffffffff168152602001908152602001600020549050919050565b6000611270600761205e565b600061127c6007611d0b565b90506112883382612074565b611292818561224e565b61129c81846122c2565b5092915050565b6060600180546112b290613b71565b80601f01602080910402602001604051908101604052809291908181526020018280546112de90613b71565b801561132b5780601f106113005761010080835404028352916020019161132b565b820191906000526020600020905b81548152906001019060200180831161130e57829003601f168201915b5050505050905090565b611347611340611c4a565b83836124c5565b5050565b600a60009054906101000a900473ffffffffffffffffffffffffffffffffffffffff1673ffffffffffffffffffffffffffffffffffffffff163373ffffffffffffffffffffffffffffffffffffffff16146113db576040517f08c379a00000000000000000000000000000000000000000000000000000000081526004016113d290613610565b60405180910390fd5b8060098190555050565b6113f66113f0611c4a565b83611d19565b611435576040517f08c379a000000000000000000000000000000000000000000000000000000000815260040161142c906138b0565b60405180910390fd5b61144184848484612632565b50505050565b60095481565b606061145882611bde565b611497576040517f08c379a000000000000000000000000000000000000000000000000000000000815260040161148e906137d0565b60405180910390fd5b60006006600084815260200190815260200160002080546114b790613b71565b80601f01602080910402602001604051908101604052809291908181526020018280546114e390613b71565b80156115305780601f1061150557610100808354040283529160200191611530565b820191906000526020600020905b81548152906001019060200180831161151357829003601f168201915b50505050509050600061154161268e565b905060008151141561155757819250505061159a565b60008251111561158c5780826040516020016115749291906134e1565b6040516020818303038152906040529250505061159a565b611595846126a5565b925050505b919050565b60003373ffffffffffffffffffffffffffffffffffffffff16600b600085815260200190815260200160002060020160009054906101000a900473ffffffffffffffffffffffffffffffffffffffff1673ffffffffffffffffffffffffffffffffffffffff1614905080611648576040517f08c379a000000000000000000000000000000000000000000000000000000000815260040161163f90613870565b60405180910390fd5b600954341461168c576040517f08c379a000000000000000000000000000000000000000000000000000000000815260040161168390613850565b60405180910390fd5b6000600b600085815260200190815260200160002060040160006101000a81548160ff02191690831515021790555081600b60008581526020019081526020016000206003018190555033600b600085815260200190815260200160002060010160006101000a81548173ffffffffffffffffffffffffffffffffffffffff021916908373ffffffffffffffffffffffffffffffffffffffff16021790555030600b600085815260200190815260200160002060020160006101000a81548173ffffffffffffffffffffffffffffffffffffffff021916908373ffffffffffffffffffffffffffffffffffffffff16021790555061178a600861274c565b611795333085611df7565b505050565b6000600560008473ffffffffffffffffffffffffffffffffffffffff1673ffffffffffffffffffffffffffffffffffffffff16815260200190815260200160002060008373ffffffffffffffffffffffffffffffffffffffff1673ffffffffffffffffffffffffffffffffffffffff16815260200190815260200160002060009054906101000a900460ff16905092915050565b6060600061183c6007611d0b565b905060008060005b838110156118eb5760003373ffffffffffffffffffffffffffffffffffffffff16600b600060018561187691906139ee565b815260200190815260200160002060010160009054906101000a900473ffffffffffffffffffffffffffffffffffffffff1673ffffffffffffffffffffffffffffffffffffffff1614905080156118d7576001846118d491906139ee565b93505b5080806118e390613bd4565b915050611844565b5060008267ffffffffffffffff81111561192e577f4e487b7100000000000000000000000000000000000000000000000000000000600052604160045260246000fd5b60405190808252806020026020018201604052801561196757816020015b611954612b19565b81526020019060019003908161194c5790505b50905060005b84811015611b695760003373ffffffffffffffffffffffffffffffffffffffff16600b600060018561199f91906139ee565b815260200190815260200160002060010160009054906101000a900473ffffffffffffffffffffffffffffffffffffffff1673ffffffffffffffffffffffffffffffffffffffff161490508015611b555760006001836119ff91906139ee565b90506000600b60008381526020019081526020016000209050806040518060a0016040529081600082015481526020016001820160009054906101000a900473ffffffffffffffffffffffffffffffffffffffff1673ffffffffffffffffffffffffffffffffffffffff1673ffffffffffffffffffffffffffffffffffffffff1681526020016002820160009054906101000a900473ffffffffffffffffffffffffffffffffffffffff1673ffffffffffffffffffffffffffffffffffffffff1673ffffffffffffffffffffffffffffffffffffffff168152602001600382015481526020016004820160009054906101000a900460ff161515151581525050858781518110611b38577f4e487b7100000000000000000000000000000000000000000000000000000000600052603260045260246000fd5b6020026020010181905250600186611b5091906139ee565b955050505b508080611b6190613bd4565b91505061196d565b508094505050505090565b60007f01ffc9a7000000000000000000000000000000000000000000000000000000007bffffffffffffffffffffffffffffffffffffffffffffffffffffffff1916827bffffffffffffffffffffffffffffffffffffffffffffffffffffffff1916149050919050565b60008073ffffffffffffffffffffffffffffffffffffffff166002600084815260200190815260200160002060009054906101000a900473ffffffffffffffffffffffffffffffffffffffff1673ffffffffffffffffffffffffffffffffffffffff1614159050919050565b600033905090565b816004600083815260200190815260200160002060006101000a81548173ffffffffffffffffffffffffffffffffffffffff021916908373ffffffffffffffffffffffffffffffffffffffff160217905550808273ffffffffffffffffffffffffffffffffffffffff16611cc5836110fa565b73ffffffffffffffffffffffffffffffffffffffff167f8c5be1e5ebec7d5bd14f71427d1e84f3dd0314c0f7b2291e5b200ac8c7c3b92560405160405180910390a45050565b600081600001549050919050565b6000611d2482611bde565b611d63576040517f08c379a0000000000000000000000000000000000000000000000000000000008152600401611d5a90613710565b60405180910390fd5b6000611d6e836110fa565b90508073ffffffffffffffffffffffffffffffffffffffff168473ffffffffffffffffffffffffffffffffffffffff161480611ddd57508373ffffffffffffffffffffffffffffffffffffffff16611dc58461069a565b73ffffffffffffffffffffffffffffffffffffffff16145b80611dee5750611ded818561179a565b5b91505092915050565b8273ffffffffffffffffffffffffffffffffffffffff16611e17826110fa565b73ffffffffffffffffffffffffffffffffffffffff1614611e6d576040517f08c379a0000000000000000000000000000000000000000000000000000000008152600401611e6490613670565b60405180910390fd5b600073ffffffffffffffffffffffffffffffffffffffff168273ffffffffffffffffffffffffffffffffffffffff161415611edd576040517f08c379a0000000000000000000000000000000000000000000000000000000008152600401611ed4906136d0565b60405180910390fd5b611ee88383836127a8565b611ef3600082611c52565b6001600360008573ffffffffffffffffffffffffffffffffffffffff1673ffffffffffffffffffffffffffffffffffffffff1681526020019081526020016000206000828254611f439190613a75565b925050819055506001600360008473ffffffffffffffffffffffffffffffffffffffff1673ffffffffffffffffffffffffffffffffffffffff1681526020019081526020016000206000828254611f9a91906139ee565b92505081905550816002600083815260200190815260200160002060006101000a81548173ffffffffffffffffffffffffffffffffffffffff021916908373ffffffffffffffffffffffffffffffffffffffff160217905550808273ffffffffffffffffffffffffffffffffffffffff168473ffffffffffffffffffffffffffffffffffffffff167fddf252ad1be2c89b69c2b068fc378daa952ba7f163c4a11628f55a4df523b3ef60405160405180910390a46120598383836127ad565b505050565b6001816000016000828254019250508190555050565b600073ffffffffffffffffffffffffffffffffffffffff168273ffffffffffffffffffffffffffffffffffffffff1614156120e4576040517f08c379a00000000000000000000000000000000000000000000000000000000081526004016120db906137b0565b60405180910390fd5b6120ed81611bde565b1561212d576040517f08c379a000000000000000000000000000000000000000000000000000000000815260040161212490613690565b60405180910390fd5b612139600083836127a8565b6001600360008473ffffffffffffffffffffffffffffffffffffffff1673ffffffffffffffffffffffffffffffffffffffff168152602001908152602001600020600082825461218991906139ee565b92505081905550816002600083815260200190815260200160002060006101000a81548173ffffffffffffffffffffffffffffffffffffffff021916908373ffffffffffffffffffffffffffffffffffffffff160217905550808273ffffffffffffffffffffffffffffffffffffffff16600073ffffffffffffffffffffffffffffffffffffffff167fddf252ad1be2c89b69c2b068fc378daa952ba7f163c4a11628f55a4df523b3ef60405160405180910390a461224a600083836127ad565b5050565b61225782611bde565b612296576040517f08c379a000000000000000000000000000000000000000000000000000000000815260040161228d90613790565b60405180910390fd5b806006600084815260200190815260200160002090805190602001906122bd929190612b76565b505050565b60008111612305576040517f08c379a00000000000000000000000000000000000000000000000000000000081526004016122fc90613810565b60405180910390fd5b6009543414612349576040517f08c379a000000000000000000000000000000000000000000000000000000000815260040161234090613850565b60405180910390fd5b6040518060a001604052808381526020013373ffffffffffffffffffffffffffffffffffffffff1681526020013073ffffffffffffffffffffffffffffffffffffffff16815260200182815260200160001515815250600b60008481526020019081526020016000206000820151816000015560208201518160010160006101000a81548173ffffffffffffffffffffffffffffffffffffffff021916908373ffffffffffffffffffffffffffffffffffffffff16021790555060408201518160020160006101000a81548173ffffffffffffffffffffffffffffffffffffffff021916908373ffffffffffffffffffffffffffffffffffffffff1602179055506060820151816003015560808201518160040160006101000a81548160ff021916908315150217905550905050612482333084611df7565b817f123b84356262ed6c3df6fb43e2ffc66fc4b97580b6dc6e86a53bc1b8afa50a7033308460006040516124b99493929190613520565b60405180910390a25050565b8173ffffffffffffffffffffffffffffffffffffffff168373ffffffffffffffffffffffffffffffffffffffff161415612534576040517f08c379a000000000000000000000000000000000000000000000000000000000815260040161252b906136f0565b60405180910390fd5b80600560008573ffffffffffffffffffffffffffffffffffffffff1673ffffffffffffffffffffffffffffffffffffffff16815260200190815260200160002060008473ffffffffffffffffffffffffffffffffffffffff1673ffffffffffffffffffffffffffffffffffffffff16815260200190815260200160002060006101000a81548160ff0219169083151502179055508173ffffffffffffffffffffffffffffffffffffffff168373ffffffffffffffffffffffffffffffffffffffff167f17307eab39ab6107e8899845ad3d59bd9653f200f220920489ca2b5937696c318360405161262591906135d3565b60405180910390a3505050565b61263d848484611df7565b612649848484846127b2565b612688576040517f08c379a000000000000000000000000000000000000000000000000000000000815260040161267f90613650565b60405180910390fd5b50505050565b606060405180602001604052806000815250905090565b60606126b082611bde565b6126ef576040517f08c379a00000000000000000000000000000000000000000000000000000000081526004016126e690613830565b60405180910390fd5b60006126f961268e565b905060008151116127195760405180602001604052806000815250612744565b8061272384612949565b6040516020016127349291906134e1565b6040516020818303038152906040525b915050919050565b60008160000154905060008111612798576040517f08c379a000000000000000000000000000000000000000000000000000000000815260040161278f90613630565b60405180910390fd5b6001810382600001819055505050565b505050565b505050565b60006127d38473ffffffffffffffffffffffffffffffffffffffff16612af6565b1561293c578373ffffffffffffffffffffffffffffffffffffffff1663150b7a026127fc611c4a565b8786866040518563ffffffff1660e01b815260040161281e9493929190613565565b602060405180830381600087803b15801561283857600080fd5b505af192505050801561286957506040513d601f19601f820116820180604052508101906128669190612f22565b60015b6128ec573d8060008114612899576040519150601f19603f3d011682016040523d82523d6000602084013e61289e565b606091505b506000815114156128e4576040517f08c379a00000000000000000000000000000000000000000000000000000000081526004016128db90613650565b60405180910390fd5b805181602001fd5b63150b7a0260e01b7bffffffffffffffffffffffffffffffffffffffffffffffffffffffff1916817bffffffffffffffffffffffffffffffffffffffffffffffffffffffff191614915050612941565b600190505b949350505050565b60606000821415612991576040518060400160405280600181526020017f30000000000000000000000000000000000000000000000000000000000000008152509050612af1565b600082905060005b600082146129c35780806129ac90613bd4565b915050600a826129bc9190613a44565b9150612999565b60008167ffffffffffffffff811115612a05577f4e487b7100000000000000000000000000000000000000000000000000000000600052604160045260246000fd5b6040519080825280601f01601f191660200182016040528015612a375781602001600182028036833780820191505090505b5090505b60008514612aea57600182612a509190613a75565b9150600a85612a5f9190613c1d565b6030612a6b91906139ee565b60f81b818381518110612aa7577f4e487b7100000000000000000000000000000000000000000000000000000000600052603260045260246000fd5b60200101907effffffffffffffffffffffffffffffffffffffffffffffffffffffffffffff1916908160001a905350600a85612ae39190613a44565b9450612a3b565b8093505050505b919050565b6000808273ffffffffffffffffffffffffffffffffffffffff163b119050919050565b6040518060a0016040528060008152602001600073ffffffffffffffffffffffffffffffffffffffff168152602001600073ffffffffffffffffffffffffffffffffffffffff168152602001600081526020016000151581525090565b828054612b8290613b71565b90600052602060002090601f016020900481019282612ba45760008555612beb565b82601f10612bbd57805160ff1916838001178555612beb565b82800160010185558215612beb579182015b82811115612bea578251825591602001919060010190612bcf565b5b509050612bf89190612bfc565b5090565b5b80821115612c15576000816000905550600101612bfd565b5090565b6000612c2c612c2784613910565b6138eb565b905082815260208101848484011115612c4457600080fd5b612c4f848285613b2f565b509392505050565b6000612c6a612c6584613941565b6138eb565b905082815260208101848484011115612c8257600080fd5b612c8d848285613b2f565b509392505050565b600081359050612ca481614301565b92915050565b600081359050612cb981614318565b92915050565b600081359050612cce8161432f565b92915050565b600081519050612ce38161432f565b92915050565b600082601f830112612cfa57600080fd5b8135612d0a848260208601612c19565b91505092915050565b600082601f830112612d2457600080fd5b8135612d34848260208601612c57565b91505092915050565b600081359050612d4c81614346565b92915050565b600060208284031215612d6457600080fd5b6000612d7284828501612c95565b91505092915050565b60008060408385031215612d8e57600080fd5b6000612d9c85828601612c95565b9250506020612dad85828601612c95565b9150509250929050565b600080600060608486031215612dcc57600080fd5b6000612dda86828701612c95565b9350506020612deb86828701612c95565b9250506040612dfc86828701612d3d565b9150509250925092565b60008060008060808587031215612e1c57600080fd5b6000612e2a87828801612c95565b9450506020612e3b87828801612c95565b9350506040612e4c87828801612d3d565b925050606085013567ffffffffffffffff811115612e6957600080fd5b612e7587828801612ce9565b91505092959194509250565b60008060408385031215612e9457600080fd5b6000612ea285828601612c95565b9250506020612eb385828601612caa565b9150509250929050565b60008060408385031215612ed057600080fd5b6000612ede85828601612c95565b9250506020612eef85828601612d3d565b9150509250929050565b600060208284031215612f0b57600080fd5b6000612f1984828501612cbf565b91505092915050565b600060208284031215612f3457600080fd5b6000612f4284828501612cd4565b91505092915050565b60008060408385031215612f5e57600080fd5b600083013567ffffffffffffffff811115612f7857600080fd5b612f8485828601612d13565b9250506020612f9585828601612d3d565b9150509250929050565b600060208284031215612fb157600080fd5b6000612fbf84828501612d3d565b91505092915050565b60008060408385031215612fdb57600080fd5b6000612fe985828601612d3d565b9250506020612ffa85828601612d3d565b9150509250929050565b6000613010838361345b565b60a08301905092915050565b61302581613abb565b82525050565b61303481613aa9565b82525050565b600061304582613982565b61304f81856139b0565b935061305a83613972565b8060005b8381101561308b5781516130728882613004565b975061307d836139a3565b92505060018101905061305e565b5085935050505092915050565b6130a181613acd565b82525050565b6130b081613acd565b82525050565b60006130c18261398d565b6130cb81856139c1565b93506130db818560208601613b3e565b6130e481613d0a565b840191505092915050565b60006130fa82613998565b61310481856139d2565b9350613114818560208601613b3e565b61311d81613d0a565b840191505092915050565b600061313382613998565b61313d81856139e3565b935061314d818560208601613b3e565b80840191505092915050565b60006131666032836139d2565b915061317182613d1b565b604082019050919050565b6000613189601b836139d2565b915061319482613d6a565b602082019050919050565b60006131ac6032836139d2565b91506131b782613d93565b604082019050919050565b60006131cf6025836139d2565b91506131da82613de2565b604082019050919050565b60006131f2601c836139d2565b91506131fd82613e31565b602082019050919050565b60006132156032836139d2565b915061322082613e5a565b604082019050919050565b60006132386024836139d2565b915061324382613ea9565b604082019050919050565b600061325b6019836139d2565b915061326682613ef8565b602082019050919050565b600061327e602c836139d2565b915061328982613f21565b604082019050919050565b60006132a16038836139d2565b91506132ac82613f70565b604082019050919050565b60006132c4602a836139d2565b91506132cf82613fbf565b604082019050919050565b60006132e76029836139d2565b91506132f28261400e565b604082019050919050565b600061330a602e836139d2565b91506133158261405d565b604082019050919050565b600061332d6020836139d2565b9150613338826140ac565b602082019050919050565b60006133506031836139d2565b915061335b826140d5565b604082019050919050565b6000613373602c836139d2565b915061337e82614124565b604082019050919050565b60006133966018836139d2565b91506133a182614173565b602082019050919050565b60006133b9602f836139d2565b91506133c48261419c565b604082019050919050565b60006133dc601e836139d2565b91506133e7826141eb565b602082019050919050565b60006133ff6025836139d2565b915061340a82614214565b604082019050919050565b60006134226021836139d2565b915061342d82614263565b604082019050919050565b60006134456031836139d2565b9150613450826142b2565b604082019050919050565b60a08201600082015161347160008501826134c3565b506020820151613484602085018261301c565b506040820151613497604085018261301c565b5060608201516134aa60608501826134c3565b5060808201516134bd6080850182613098565b50505050565b6134cc81613b25565b82525050565b6134db81613b25565b82525050565b60006134ed8285613128565b91506134f98284613128565b91508190509392505050565b600060208201905061351a600083018461302b565b92915050565b6000608082019050613535600083018761302b565b613542602083018661302b565b61354f60408301856134d2565b61355c60608301846130a7565b95945050505050565b600060808201905061357a600083018761302b565b613587602083018661302b565b61359460408301856134d2565b81810360608301526135a681846130b6565b905095945050505050565b600060208201905081810360008301526135cb818461303a565b905092915050565b60006020820190506135e860008301846130a7565b92915050565b6000602082019050818103600083015261360881846130ef565b905092915050565b6000602082019050818103600083015261362981613159565b9050919050565b600060208201905081810360008301526136498161317c565b9050919050565b600060208201905081810360008301526136698161319f565b9050919050565b60006020820190508181036000830152613689816131c2565b9050919050565b600060208201905081810360008301526136a9816131e5565b9050919050565b600060208201905081810360008301526136c981613208565b9050919050565b600060208201905081810360008301526136e98161322b565b9050919050565b600060208201905081810360008301526137098161324e565b9050919050565b6000602082019050818103600083015261372981613271565b9050919050565b6000602082019050818103600083015261374981613294565b9050919050565b60006020820190508181036000830152613769816132b7565b9050919050565b60006020820190508181036000830152613789816132da565b9050919050565b600060208201905081810360008301526137a9816132fd565b9050919050565b600060208201905081810360008301526137c981613320565b9050919050565b600060208201905081810360008301526137e981613343565b9050919050565b6000602082019050818103600083015261380981613366565b9050919050565b6000602082019050818103600083015261382981613389565b9050919050565b60006020820190508181036000830152613849816133ac565b9050919050565b60006020820190508181036000830152613869816133cf565b9050919050565b60006020820190508181036000830152613889816133f2565b9050919050565b600060208201905081810360008301526138a981613415565b9050919050565b600060208201905081810360008301526138c981613438565b9050919050565b60006020820190506138e560008301846134d2565b92915050565b60006138f5613906565b90506139018282613ba3565b919050565b6000604051905090565b600067ffffffffffffffff82111561392b5761392a613cdb565b5b61393482613d0a565b9050602081019050919050565b600067ffffffffffffffff82111561395c5761395b613cdb565b5b61396582613d0a565b9050602081019050919050565b6000819050602082019050919050565b600081519050919050565b600081519050919050565b600081519050919050565b6000602082019050919050565b600082825260208201905092915050565b600082825260208201905092915050565b600082825260208201905092915050565b600081905092915050565b60006139f982613b25565b9150613a0483613b25565b9250827fffffffffffffffffffffffffffffffffffffffffffffffffffffffffffffffff03821115613a3957613a38613c4e565b5b828201905092915050565b6000613a4f82613b25565b9150613a5a83613b25565b925082613a6a57613a69613c7d565b5b828204905092915050565b6000613a8082613b25565b9150613a8b83613b25565b925082821015613a9e57613a9d613c4e565b5b828203905092915050565b6000613ab482613b05565b9050919050565b6000613ac682613b05565b9050919050565b60008115159050919050565b60007fffffffff0000000000000000000000000000000000000000000000000000000082169050919050565b600073ffffffffffffffffffffffffffffffffffffffff82169050919050565b6000819050919050565b82818337600083830152505050565b60005b83811015613b5c578082015181840152602081019050613b41565b83811115613b6b576000848401525b50505050565b60006002820490506001821680613b8957607f821691505b60208210811415613b9d57613b9c613cac565b5b50919050565b613bac82613d0a565b810181811067ffffffffffffffff82111715613bcb57613bca613cdb565b5b80604052505050565b6000613bdf82613b25565b91507fffffffffffffffffffffffffffffffffffffffffffffffffffffffffffffffff821415613c1257613c11613c4e565b5b600182019050919050565b6000613c2882613b25565b9150613c3383613b25565b925082613c4357613c42613c7d565b5b828206905092915050565b7f4e487b7100000000000000000000000000000000000000000000000000000000600052601160045260246000fd5b7f4e487b7100000000000000000000000000000000000000000000000000000000600052601260045260246000fd5b7f4e487b7100000000000000000000000000000000000000000000000000000000600052602260045260246000fd5b7f4e487b7100000000000000000000000000000000000000000000000000000000600052604160045260246000fd5b6000601f19601f8301169050919050565b7f6f6e6c79206d61726b6574706c616365206f776e65722063616e20757061746560008201527f20746865206c697374696e672070726963650000000000000000000000000000602082015250565b7f436f756e7465723a2064656372656d656e74206f766572666c6f770000000000600082015250565b7f4552433732313a207472616e7366657220746f206e6f6e20455243373231526560008201527f63656976657220696d706c656d656e7465720000000000000000000000000000602082015250565b7f4552433732313a207472616e736665722066726f6d20696e636f72726563742060008201527f6f776e6572000000000000000000000000000000000000000000000000000000602082015250565b7f4552433732313a20746f6b656e20616c7265616479206d696e74656400000000600082015250565b7f506c65617365207375626d6974207468652061736b65642066756c6c2070726960008201527f636520746f206d616b6520746865206275790000000000000000000000000000602082015250565b7f4552433732313a207472616e7366657220746f20746865207a65726f2061646460008201527f7265737300000000000000000000000000000000000000000000000000000000602082015250565b7f4552433732313a20617070726f766520746f2063616c6c657200000000000000600082015250565b7f4552433732313a206f70657261746f7220717565727920666f72206e6f6e657860008201527f697374656e7420746f6b656e0000000000000000000000000000000000000000602082015250565b7f4552433732313a20617070726f76652063616c6c6572206973206e6f74206f7760008201527f6e6572206e6f7220617070726f76656420666f7220616c6c0000000000000000602082015250565b7f4552433732313a2062616c616e636520717565727920666f7220746865207a6560008201527f726f206164647265737300000000000000000000000000000000000000000000602082015250565b7f4552433732313a206f776e657220717565727920666f72206e6f6e657869737460008201527f656e7420746f6b656e0000000000000000000000000000000000000000000000602082015250565b7f45524337323155524953746f726167653a2055524920736574206f66206e6f6e60008201527f6578697374656e7420746f6b656e000000000000000000000000000000000000602082015250565b7f4552433732313a206d696e7420746f20746865207a65726f2061646472657373600082015250565b7f45524337323155524953746f726167653a2055524920717565727920666f722060008201527f6e6f6e6578697374656e7420746f6b656e000000000000000000000000000000602082015250565b7f4552433732313a20617070726f76656420717565727920666f72206e6f6e657860008201527f697374656e7420746f6b656e0000000000000000000000000000000000000000602082015250565b7f5072696365206d757374206265206174206c6573617420310000000000000000600082015250565b7f4552433732314d657461646174613a2055524920717565727920666f72206e6f60008201527f6e6578697374656e7420746f6b656e0000000000000000000000000000000000602082015250565b7f5072696365206d75737420626520746f206c697374696e672070726963650000600082015250565b7f6f6e6c79206f776e65722063616e20706572666f726d2074686973206f70657260008201527f6174696f6e000000000000000000000000000000000000000000000000000000602082015250565b7f4552433732313a20617070726f76616c20746f2063757272656e74206f776e6560008201527f7200000000000000000000000000000000000000000000000000000000000000602082015250565b7f4552433732313a207472616e736665722063616c6c6572206973206e6f74206f60008201527f776e6572206e6f7220617070726f766564000000000000000000000000000000602082015250565b61430a81613aa9565b811461431557600080fd5b50565b61432181613acd565b811461432c57600080fd5b50565b61433881613ad9565b811461434357600080fd5b50565b61434f81613b25565b811461435a57600080fd5b5056fea2646970667358221220d1ca7a613ab1021403ec2cfe8e6402039b920cb7b35b6373018a620a61c6d64564736f6c63430008040033",
  "linkReferences": {},
  "deployedLinkReferences": {}
}